{
  "contractName": "ToDoManager",
  "abi": [
    {
      "constant": true,
      "inputs": [
        {
          "name": "",
          "type": "uint256"
        }
      ],
      "name": "todoByIndex",
      "outputs": [
        {
          "name": "",
          "type": "string"
        }
      ],
      "payable": false,
      "stateMutability": "view",
      "type": "function"
    },
    {
      "constant": true,
      "inputs": [],
      "name": "indexCounter",
      "outputs": [
        {
          "name": "",
          "type": "uint256"
        }
      ],
      "payable": false,
      "stateMutability": "view",
      "type": "function"
    },
    {
      "constant": true,
      "inputs": [
        {
          "name": "",
          "type": "uint256"
        }
      ],
      "name": "statusOf",
      "outputs": [
        {
          "name": "",
          "type": "uint8"
        }
      ],
      "payable": false,
      "stateMutability": "view",
      "type": "function"
    },
    {
      "constant": false,
      "inputs": [
        {
          "name": "_toDo",
          "type": "string"
        }
      ],
      "name": "addToDo",
      "outputs": [],
      "payable": false,
      "stateMutability": "nonpayable",
      "type": "function"
    },
    {
      "constant": false,
      "inputs": [
        {
          "name": "_index",
          "type": "uint256"
        }
      ],
      "name": "changeToDoStatus",
      "outputs": [],
      "payable": false,
      "stateMutability": "nonpayable",
      "type": "function"
    },
    {
      "constant": false,
      "inputs": [
        {
          "name": "_index",
          "type": "uint256"
        }
      ],
      "name": "removeToDo",
      "outputs": [],
      "payable": false,
      "stateMutability": "nonpayable",
      "type": "function"
    },
    {
      "constant": true,
      "inputs": [
        {
          "name": "_index",
          "type": "uint256"
        }
      ],
      "name": "getToDoByIndex",
      "outputs": [
        {
          "name": "",
          "type": "string"
        }
      ],
      "payable": false,
      "stateMutability": "view",
      "type": "function"
    },
    {
      "constant": true,
      "inputs": [
        {
          "name": "_index",
          "type": "uint256"
        }
      ],
      "name": "getToDoStatus",
      "outputs": [
        {
          "name": "",
          "type": "uint8"
        }
      ],
      "payable": false,
      "stateMutability": "view",
      "type": "function"
    }
  ],
  "bytecode": "0x608060405234801561001057600080fd5b50610821806100206000396000f3fe608060405234801561001057600080fd5b50600436106100a5576000357c010000000000000000000000000000000000000000000000000000000090048063871d179411610078578063871d1794146102e1578063950dbaa8146102ff578063ad35efd41461032d578063ded65f6d1461037d576100a5565b80632b6032de146100aa5780633c4a57d6146100d85780635cb6f0e5146101935780635ee9985d1461023a575b600080fd5b6100d6600480360360208110156100c057600080fd5b81019080803590602001909291905050506103cd565b005b610191600480360360208110156100ee57600080fd5b810190808035906020019064010000000081111561010b57600080fd5b82018360208201111561011d57600080fd5b8035906020019184600183028401116401000000008311171561013f57600080fd5b91908080601f016020809104026020016040519081016040528093929190818152602001838380828437600081840152601f19601f820116905080830192505050505050509192919290505050610450565b005b6101bf600480360360208110156101a957600080fd5b81019080803590602001909291905050506104c4565b6040518080602001828103825283818151815260200191508051906020019080838360005b838110156101ff5780820151818401526020810190506101e4565b50505050905090810190601f16801561022c5780820380516001836020036101000a031916815260200191505b509250505060405180910390f35b6102666004803603602081101561025057600080fd5b8101908080359060200190929190505050610574565b6040518080602001828103825283818151815260200191508051906020019080838360005b838110156102a657808201518184015260208101905061028b565b50505050905090810190601f1680156102d35780820380516001836020036101000a031916815260200191505b509250505060405180910390f35b6102e9610628565b6040518082815260200191505060405180910390f35b61032b6004803603602081101561031557600080fd5b810190808035906020019092919050505061062e565b005b6103596004803603602081101561034357600080fd5b8101908080359060200190929190505050610706565b6040518082600381111561036957fe5b60ff16815260200191505060405180910390f35b6103a96004803603602081101561039357600080fd5b8101908080359060200190929190505050610726565b604051808260038111156103b957fe5b60ff16815260200191505060405180910390f35b60006001600083815260200190815260200160002060009054906101000a900460ff1660038111156103fb57fe5b90506003811061040a57600080fd5b60018101600381111561041957fe5b6001600084815260200190815260200160002060006101000a81548160ff0219169083600381111561044757fe5b02179055505050565b8060008060025481526020019081526020016000209080519060200190610478929190610750565b506001806000600254815260200190815260200160002060006101000a81548160ff021916908360038111156104aa57fe5b021790555060026000815480929190600101919050555050565b60006020528060005260406000206000915090508054600181600116156101000203166002900480601f01602080910402602001604051908101604052809291908181526020018280546001816001161561010002031660029004801561056c5780601f106105415761010080835404028352916020019161056c565b820191906000526020600020905b81548152906001019060200180831161054f57829003601f168201915b505050505081565b60606000808381526020019081526020016000208054600181600116156101000203166002900480601f01602080910402602001604051908101604052809291908181526020018280546001816001161561010002031660029004801561061c5780601f106105f15761010080835404028352916020019161061c565b820191906000526020600020905b8154815290600101906020018083116105ff57829003601f168201915b50505050509050919050565b60025481565b6000600381111561063b57fe5b6001600083815260200190815260200160002060009054906101000a900460ff16600381111561066757fe5b141561067257600080fd5b60006001600083815260200190815260200160002060006101000a81548160ff021916908360038111156106a257fe5b02179055506040518060400160405280600581526020017f656d7074790000000000000000000000000000000000000000000000000000008152506000808381526020019081526020016000209080519060200190610702929190610750565b5050565b60016020528060005260406000206000915054906101000a900460ff1681565b60006001600083815260200190815260200160002060009054906101000a900460ff169050919050565b828054600181600116156101000203166002900490600052602060002090601f016020900481019282601f1061079157805160ff19168380011785556107bf565b828001600101855582156107bf579182015b828111156107be5782518255916020019190600101906107a3565b5b5090506107cc91906107d0565b5090565b6107f291905b808211156107ee5760008160009055506001016107d6565b5090565b9056fea165627a7a72305820295b8bd57d1a938f43a745dcc8012c734ab49db2ba3f4b795b68838cef86f7110029",
  "source": "pragma solidity ^0.5.0;\n\ncontract ToDoManager {\n    \n    enum Status {Initial, ToDo, InProgress, Done}\n    mapping (uint => string) public todoByIndex;\n    mapping (uint => Status) public statusOf;\n    uint public indexCounter;\n    \n    \n    function addToDo(string memory _toDo) public {\n        todoByIndex[indexCounter] = _toDo;\n        statusOf[indexCounter] = Status.ToDo;\n        indexCounter++;\n    }\n\n    \n    function changeToDoStatus(uint _index) public {\n        uint currentStatus = uint(statusOf[_index]);\n        require(currentStatus < 3);\n        statusOf[_index] = Status(currentStatus + 1);\n    }\n    \n    function removeToDo(uint _index) public {\n        require(uint(statusOf[_index]) != uint(Status.Initial));\n        statusOf[_index] = Status.Initial;\n        todoByIndex[_index] = \"empty\";\n    }\n\n    function getToDoByIndex(uint _index) public view returns (string memory) {\n        return todoByIndex[_index];\n    }\n\n    function getToDoStatus(uint _index) public view returns(Status) {\n        return statusOf[_index];\n    }\n\n    \n}",
  "sourcePath": "/Users/deacix/Projects/Hackathon/nuTube/contracts/ToDoManager.sol",
  "compiler": {
    "name": "solc",
    "version": "0.5.7+commit.6da8b019.Emscripten.clang"
  },
  "schemaVersion": "1.1.1",
  "updatedAt": "2019-04-20T08:27:40.083Z"
}